:100000000C942A000C943C000C943C000C943C0092
:100010000C943C000C943C000C943C000C943C0070
:100020000C943C000C943C000C943C000C943C0060
:100030000C943C000C943C000C943C000C943C0050
:100040000C943C000C943C000C943C000C943C0040
:100050000C943C0011241FBECFE5D8E0DEBFCDBF1D
:1000600024E0A0E6B0E001C01D92A336B207E1F79C
:100070000E9428010C9453010C940000882331F055
:1000800081E080936204DA98DB9A0895109262040A
:10009000DB98DA9A08959FEF94BBD89A9AE19A95E3
:1000A000F1F700C085BBD89885E38A95F1F7000089
:1000B00008958BB3837F8BBB0895CF93C82FD99AB4
:1000C0000E944B00809161042091620430E02F5F18
:1000D0003F4F829FF001839FF00D112490916000AB
:1000E000EE0FFF1FEE0FFF1FEE0FFF1FEF59FF4F29
:1000F000E90FF11DC0838F5F8F7380936104D998DE
:10010000CF9108951F93CF93DF9380E48093610490
:100110000E944B0010E0812F886B809360000E944A
:100120004B00C0E4D0E080E00E945D002197D9F749
:100130001F5F183081F788EB809360000E944B00AE
:10014000DF91CF911F9108958FEF84BB8AB38F60A9
:100150008ABB0E9459008FE30E944B0080EC0E94F2
:100160004B000E94820080E00E943E000895E1E67C
:10017000F0E021E634E008C01192E817F907E1F752
:10018000FC012817390719F0CF010896F5CF08951B
:100190000E9459000E94820080E00E943E000E945E
:1001A000B7000895CF93C82F8064809361040E94A4
:1001B0004B00C0936104CF910895CF93C82F886BF3
:1001C000809360000E944B00C0936000CF9108951F
:1001D000CF93DF93C82FD62F82958695869583700F
:1001E0000E943E008D2F8695869586950E94DD00A3
:1001F0008C2F8F730E94D200DF91CF910895CF93FF
:10020000C62F0E94E8008091620490E00196209140
:100210006104289FF001299FF00D11248091600056
:10022000EE0FFF1FEE0FFF1FEE0FFF1FEF59FF4FE7
:10023000E80FF11DC77081E090E002C0880F991FA0
:10024000CA95E2F79081892B0E945D00CF910895B5
:100250000E94A400C0E06C2F8EE10E94FF00CF5FDF
:10026000C034C9F719C0DF5F2AF40E94C800C0E09B
:10027000D0E001C0C0E02FEF80E792E02150804045
:100280009040E1F700C000006C2F8D2F0E94FF000E
:10029000CF5FC03440F7EFCF60E080E00E94FF0006
:0A02A000C1E0D0E0E8CFF894FFCFF2
:00000001FF
