S0140000676C63645F6C6962726172792E7372656322
S11300000C942A000C943C000C943C000C943C008E
S11300100C943C000C943C000C943C000C943C006C
S11300200C943C000C943C000C943C000C943C005C
S11300300C943C000C943C000C943C000C943C004C
S11300400C943C000C943C000C943C000C943C003C
S11300500C943C0011241FBECFE5D8E0DEBFCDBF19
S113006024E0A0E6B0E001C01D92A336B207E1F798
S11300700E944D010C9451010C940000882331F02E
S113008081E080936204DA98DB9A08951092620406
S1130090DB98DA9A08959FEF94BBD89A9AE19A95DF
S11300A0F1F700C085BBD89885E38A95F1F7000085
S11300B008958BB3837F8BBB0895CF93C82FD99AB0
S11300C00E944B0080916104E091620490E4E99FF6
S11300D0F0011124E80FF11D90916000EE0FFF1F55
S11300E0EE0FFF1FEE0FFF1FEF59FF4FE90FF11D3A
S11300F0C0838F5F8F7380936104D998CF910895E3
S11301001F93CF93DF9380E4809361040E944B009C
S113011010E0812F886B809360000E944B00C0E444
S1130120D0E080E00E945D002197D9F71F5F18306E
S113013081F788EB809360000E944B00DF91CF91A0
S11301401F9108958FEF84BB8AB38F608ABB0E948E
S113015059008FE30E944B0080EC0E944B000E94E8
S1130160800080E00E943E000895E1E6F0E021E690
S113017034E008C01192E817F907E1F7FC012817E9
S1130180390719F0CF010896F5CF08950E94590058
S11301900E94800080E00E943E000E94B500089505
S11301A0CF93C82F8064809361040E944B00C09356
S11301B06104CF910895CF93C82F886B809360001A
S11301C00E944B00C0936000CF910895CF93DF93BA
S11301D0C82FD62F82958695869583700E943E00FF
S11301E08D2F8695869586950E94DB008C2F8F73C4
S11301F00E94D000DF91CF910895CF93C62F0E9423
S1130200E600E09162048091610490E4E99FF001CA
S11302101124E80FF11D80916000EE0FFF1FEE0F17
S1130220FF1FEE0FFF1FEF59FF4FE80FF11DC770BF
S113023081E090E002C0880F991FCA95E2F790818F
S1130240892B0E945D00CF91089510E0D0E0C0E0BA
S113025001E0F12C6D2F8C2F0E94FD00112359F029
S1130260CF5FA2F4DF5FD03480F00E94C6001F2D60
S1130270D0E0C0E00BC0DF5FD03440F0CF5F102F80
S1130280C03408F41F2DD0E001C0C0E48FE39FE127
S11302900197F1F700C00000DDCF0E94A2000E9488
S10902A02501F894FFCFD4
S9030000FC
